:020000040800F2
:10000000009000204D1B0008E1050008E3050008F2
:1000100000000000000000000000000000000000E0
:10002000000000000000000000000000E5050008DE
:100030000000000000000000E7050008E9050008D6
:100040009D1B0008000000009D1B00089D1B000870
:100050009D1B00089D1B00089D1B00089D1B0008A0
:10006000000000009D1B00089D1B00089D1B000850
:100070009D1B00089D1B00089D1B00080000000040
:100080009D1B00089D1B00089D1B00089D1B000870
:100090009D1B00089D1B00089D1B00089D1B000860
:1000A0009D1B00089D1B00089D1B00089D1B000850
:0800B0009D1B00089D1B0008C8
:1000B80010B5064C2378002B07D1054B002B02D036
:1000C800044800E000BF0123237010BD0C0000208D
:1000D80000000000F81B0008044B10B5002B03D0EB
:1000E8000349044800E000BF10BDC04600000000FE
:1000F80010000020F81B0008002243088B4274D32C
:1001080003098B425FD3030A8B4244D3030B8B4210
:1001180028D3030C8B420DD3FF22090212BA030C19
:100128008B4202D31212090265D0030B8B4219D3FA
:1001380000E0090AC30B8B4201D3CB03C01A52411A
:10014800830B8B4201D38B03C01A5241430B8B4262
:1001580001D34B03C01A5241030B8B4201D30B034B
:10016800C01A5241C30A8B4201D3CB02C01A524172
:10017800830A8B4201D38B02C01A5241430A8B4235
:1001880001D34B02C01A5241030A8B4201D30B021E
:10019800C01A5241CDD2C3098B4201D3CB01C01A38
:1001A800524183098B4201D38B01C01A5241430942
:1001B8008B4201D34B01C01A524103098B4201D330
:1001C8000B01C01A5241C3088B4201D3CB00C01A9D
:1001D800524183088B4201D38B00C01A5241430815
:1001E8008B4201D34B00C01A5241411A00D201463A
:1001F800524110467047FFE701B5002000F0F0F8C3
:1002080002BDC0460029F7D076E7704703460B4386
:100218007FD4002243088B4274D303098B425FD3F7
:10022800030A8B4244D3030B8B4228D3030C8B4223
:100238000DD3FF22090212BA030C8B4202D3121209
:10024800090265D0030B8B4219D300E0090AC30BDE
:100258008B4201D3CB03C01A5241830B8B4201D38B
:100268008B03C01A5241430B8B4201D34B03C01A74
:100278005241030B8B4201D30B03C01A5241C30AEC
:100288008B4201D3CB02C01A5241830A8B4201D35D
:100298008B02C01A5241430A8B4201D34B02C01A47
:1002A8005241030A8B4201D30B02C01A5241CDD2EC
:1002B800C3098B4201D3CB01C01A524183098B4237
:1002C80001D38B01C01A524143098B4201D34B0120
:1002D800C01A524103098B4201D30B01C01A524183
:1002E800C3088B4201D3CB00C01A524183088B420A
:1002F80001D38B00C01A524143088B4201D34B00F3
:10030800C01A5241411A00D2014652411046704764
:100318005DE0CA0F00D04942031000D34042534069
:1003280000229C4603098B422DD3030A8B4212D329
:10033800FC22890112BA030A8B420CD3890192115B
:100348008B4208D3890192118B4204D389013AD098
:10035800921100E08909C3098B4201D3CB01C01A6D
:10036800524183098B4201D38B01C01A5241430980
:100378008B4201D34B01C01A524103098B4201D36E
:100388000B01C01A5241C3088B4201D3CB00C01ADB
:10039800524183088B4201D38B00C01A5241D9D2F3
:1003A80043088B4201D34B00C01A5241411A00D274
:1003B8000146634652415B10104601D34042002B70
:1003C80000D54942704763465B1000D3404201B5EF
:1003D800002000F005F802BD0029F8D016E77047A4
:1003E8007047C04670B58AB01422002105A801F0F4
:1003F800F7FB1D4B596B042211435963596B0A4093
:100408000192019A596B202211435963596B0A4092
:100418000292029A5A6B01252A435A635A6B2A4060
:100428000392039A596B0222114359635B6B1A407A
:100438000492049BA026F60500221021300000F04B
:10044800F6FE10230593069500240794089405A941
:10045800300000F029FE05950694079405A9034885
:1004680000F022FE0AB070BD0010024000040050E7
:1004780072B6FEE710B51048104B036082235B008C
:10048800436000238360E022D200C26003614361BD
:10049800802292008261C361036243628362FA3AF6
:1004A800FF3AC26203630833436300F025F900286A
:1004B80000D110BDFFF7DCFF28000020003001400C
:1004C80010B51748174B0360E1235B024360002314
:1004D8008360C36003610C2242618361C36103626C
:1004E8004362836201F05EFA002811D100210C48B2
:1004F80001F0D8FA00280DD10021094801F0F8FAD6
:10050800002809D1064801F0ADFA002806D110BD2F
:10051800FFF7AEFFFFF7ACFFFFF7AAFFFFF7A8FF53
:100528008C0000200044004000B593B03422002124
:1005380005A801F055FB1022002101A801F050FB8D
:100548008020800000F082FE02230593FE3308938A
:100558000023099340220A920C9305A800F04EF953
:1005680000280DD1072301930023029303930493DA
:10057800002101A800F0F0FB002803D113B000BD52
:10058800FFF776FFFFF774FF10B500F001FFFFF7E4
:10059800CBFFFFF727FFFFF76DFFFFF791FFA020C5
:1005A8002021C00500F049FE642000F017FF8021DB
:1005B8008901064800F034FE0028F0D164230D229A
:1005C8000349044801F005F9E9E7C046000800506E
:1005D800101C00088C000020FEE7FEE770477047FB
:1005E80010B500F0E9FE10BD82B00A4B196C01226B
:1005F80011431964196C0A400092009ADA6B802141
:1006080049050A43DA63DB6B0B400193019B02B097
:100618007047C0460010024010B588B0040014228C
:10062800002103A801F0DCFA2268104B9A4201D09D
:1006380008B010BD0E4B196C8020400101431964AD
:100648001A6C02400192019A596B012211435963B5
:100658005B6B1A400292029BE0230393DE3B0493F8
:10066800A02003A9C00500F01FFDE1E7003001400C
:100678000010024010B58EB004001422002109A811
:1006880001F0AEFA1C22002102A801F0A9FA2268A2
:10069800174B9A4201D00EB010BD0223029302A854
:1006A80000F03AFC00281FD1124BD96B8020800241
:1006B8000143D963DA6B02400092009A596B012218
:1006C800114359635B6B13400193019B0C230993FE
:1006D8000A3B0A930B9200230C930D92A02009A9C0
:1006E800C00500F0E1FCD6E7FFF7C2FEDCE7C04634
:1006F800004400400010024070B5041E00D178E0AC
:10070800436A002B07D10533FF3342689A4205D06C
:100718000023C36102E00023036143610023A36255
:100728005D33E35C002B5AD05D230222E254226839
:10073800136840218B431360E368E022D2009342A0
:1007480054D90022F02109018B4205D0E021C900CB
:100758008B4201D00023A36282235B0061680B40B7
:1007680084210902A06801400B430221206901404D
:100778000B43012160690840034380208000A5697C
:10078800284003433820E569284003438020256A30
:100798002840034380208001A56A2840034320683D
:1007A8000360608B042303401020656A28400343DC
:1007B8000820656B28400343F0200001E5682840C5
:1007C80003432068134343602268D3690A480340FF
:1007D800D361002323665D33E154002070BD5C3390
:1007E8000022E2542000FFF717FF9DE78022520104
:1007F800A8E70120F2E7C046FFF7FFFF70B582B017
:10080800041E00D129E20368DB0739D5C14A916883
:1008180038230B40D16803220A40102B26D0082B1E
:1008280026D063688022520293427FD0A022D2024F
:10083800934200D181E0B74B1A68B7490A401A6061
:100848001A68B6490A401A606368002B00D180E034
:1008580000F0BEFD0500AF4B1B689B0310D400F0F1
:10086800B7FD401B6428F6D90320F7E1032AD6D147
:10087800A84B1B689B0303D56368002B00D1EFE1ED
:1008880023689B0731D5A34A936838210B40D16868
:1008980003220A40102B6AD0002B6BD19D4A1268A4
:1008A800520503D5E268002A00D1DBE19948426885
:1008B8009B490A40616909020A434260002B0DD135
:1008C800036898490B4021690B4303600368DB0AFE
:1008D80007221A40944BD340944A1360944B1868EB
:1008E80000F02AFD002800D0BEE123681B0700D4D1
:1008F80081E0884B9A6838231340182B73D0A3697A
:10090800002B00D1B4E0834A136E01210B43136618
:1009180000F05EFD05007F4B1B6E9B076BD400F05B
:1009280057FD401B0228F6D9032097E1794A116840
:1009380080235B020B43136086E7764B196880229D
:10094800D2020A431A601968802252020A431A60C6
:100958007AE700F03DFD05006E4B1B689B038FD5C1
:1009680000F036FD401B6428F6D9032076E1022A00
:1009780092D193E7E368002B22D0664A136869494D
:100988000B4021690B431360116880235B000B4304
:10099800136000F01DFD05005E4B1B685B0506D467
:1009A80000F016FD401B0228F6D9032056E15949EC
:1009B8004B685B4A13406269120213434B6094E729
:1009C800544A13685B490B40136000F001FD0500B1
:1009D800504B1B685B0588D500F0FAFC401B0228C9
:1009E800F6D903203AE14B4B1B6E9B0703D5A3694D
:1009F800002B00D13AE123685B0700D4A2E0454B05
:100A08009A6838231340202B45D0424BDB6BDB0020
:100A18004AD4404AD16B802040050143D163D36B4F
:100A280003400193019B0125434B1B68DB053DD522
:100A3800A368012B4ED0052B52D0364BDA6D01211D
:100A48008A43DA65DA6D03318A43DA65A368002BD5
:100A580050D000F0BDFC06002E4BDB6D9B076FD419
:100A680000F0B6FC801B354B9842F5D90320F5E021
:100A7800284A136E01218B43136600F0A9FC050078
:100A8800244B1B6E9B07B6D500F0A2FC401B022826
:100A9800F6D90320E2E01F4BDB6D9B0752D5A36814
:100AA800002B4FD10120D9E00025BDE7224A11686B
:100AB80080235B000B43136000F08AFC06001E4B8A
:100AC8001B68DB05B4D400F083FC801B0228F6D930
:100AD8000320C3E00F4AD36D01210B43D365B5E76B
:100AE8000C4BDA6D04210A43DA65DA6D03390A43DF
:100AF800DA65ABE700F06CFC0600064BDB6D9B0784
:100B08001ED500F065FC801B0C4B9842F5D90320DC
:100B1800A4E0C04600100240FFFFFEFFFFFFFBFFFE
:100B2800FF80FFFFFFC7FFFF0024F400080000203C
:100B380004000020FFFEFFFF007000408813000043
:100B4800012D1ED0E369002B00D191E04F4A916836
:100B580038220A40102A5ED0022B18D04B4A13685C
:100B68004B490B40136000F033FC0400474B1B68F3
:100B78009B0149D500F02CFC001B0228F6D9032064
:100B88006CE0424AD36B43490B40D363DAE73F4AF0
:100B980013683F490B40136000F01AFC05003B4BFB
:100BA8001B689B0106D500F013FC401B0228F6D9F0
:100BB800032053E0354AD36837491940236A606AED
:100BC8000343A06A00020343E06A0343206B034324
:100BD8000B43D360116880235B040B431360D16817
:100BE80080235B050B43D36000F0F2FB0400274B26
:100BF8001B689B0106D400F0EBFB001B0228F6D90A
:100C080003202BE0002029E0204AD36823490B4029
:100C1800D360002022E0012B2CD01C4BDA68032380
:100C28001340216A8B4227D170231340616A8B429B
:100C380024D1FE21C9011140A36A1B0299421FD188
:100C4800F8239B031340E16A8B421BD1520F5207D2
:100C5800236B9A4218D1002000E0012002B070BD39
:100C68000120FBE70120F9E70120F7E70120F5E77C
:100C78000020F3E70120F1E70120EFE70120EDE78D
:100C88000120EBE70120E9E70120E7E70010024037
:100C9800FFFFFFFEFFFFFFEF8C80C11FFCFFFEEF91
:100CA80010B52A4B9B6838221A4207D1274B1A687D
:100CB800D20A072313402648D84010BD234B9A6810
:100CC80038231340082B3BD0204B9A683823134015
:100CD800102B0DD01D4B9A6838231340202B31D090
:100CE8001A4B9A6838231340182B26D00020E4E7C3
:100CF800164AD1680D3B0B40D268120907211140F2
:100D08000131032B0FD01248FFF7F6F90F4BDA68C1
:100D1800120A7F23134058430C4BD968490F0131FD
:100D2800FFF7EAF9C9E70B48FFF7E6F9074BDA6876
:100D3800120A7F2313405843EEE7FA20C001BCE7AC
:100D48000448BAE780200002B7E7C0460010024016
:100D58000024F40000127A0070B504000D00002889
:100D680000D1AAE0574B1A68072313408B4221D3BE
:100D780023689A070ED55B0705D5534A9168E02387
:100D8800DB010B439360504A936850490B40A168BC
:100D98000B4393602368DB0754D56368012B20D08D
:100DA800022B3BD0002B3FD1474A126852051CD476
:100DB80001206AE0434A136807218B432B431360E1
:100DC80000F006FB06003F4B1A6807231340AB42AE
:100DD800CED000F0FDFA801B3D4A9042F3D90320A3
:100DE80053E0394A1268920369D537498A6807205F
:100DF800824313438B6000F0EBFA0600324B9B688A
:100E080038221A406368DB009A421BD000F0E0FAEF
:100E1800801B2F4B9842F1D9032036E02A4A1268EA
:100E28009201E2D4012030E0032B05D0264AD26D8E
:100E38009207DAD4012028E0234A126E9207D4D40C
:100E4800012022E01F4B1A6807231340AB421DD82C
:100E580023685B0706D51C4A93681E490B40E16866
:100E68000B439360FFF71CFF174B9A68120A0F2376
:100E780013409B00184A9A581F231340D840174B19
:100E88001860174B186800F057FA70BD0D4A1368C0
:100E980007218B432B43136000F09AFA0600094B95
:100EA8001A6807231340AB42D2D000F091FA801B96
:100EB800074B9842F3D90320E7E70120E5E7012033
:100EC800E3E7C0460020024000100240FFF0FFFFA9
:100ED80088130000FF8FFFFF481C0008080000204F
:100EE80004000020014B18687047C0460800002025
:100EF80010B5FFF7F7FF064B9A68120B072313404C
:100F08009B00044A9A581F231340D84010BDC0467E
:100F180000100240881C0008F0B583B00400036884
:100F28009B0362D5584BDB6BDB001ED4564AD16B52
:100F3800802040050143D163D36B03400193019B9B
:100F48000126524A116880235B000B43136000F0AE
:100F58003FFA05004D4B1B68DB0508D400F038FA52
:100F6800401B0228F6D9032502E00026E9E7002500
:100F7800002D23D1444BD96DC02292000B001340A1
:100F8800114210D0A2699A420DD03F4AD36D404910
:100F98000B40D06D802149020143D165D16D3D4898
:100FA8000140D165D365DB0710D4002D06D1364A40
:100FB800D36D37490B40A1690B43D365012E15D179
:100FC800314AD36B34490B40D3630FE000F000FA89
:100FD80007002D4BDB6D9B07E7D400F0F9F9C01B28
:100FE8002E4B9842F5D90325DFE700252368DB0758
:100FF80006D5254A536D03218B4361680B4353651E
:1010080023689B0706D5204A536D0C218B43A168A2
:101018000B43536523689B0606D51B4A536D20492D
:101028000B40E1680B43536523685B040BD5164AF4
:10103800536D9B009B0861690B4353658023DB0557
:1010480062699A4211D023681B050BD50E4A536D6D
:1010580014490B4021690B43536522698023DB0146
:101068009A4209D0280003B0F0BD074AD16880230E
:101078005B020B43D360E6E7034AD16880235B0237
:101088000B43D360EEE7C0460010024000700040FA
:10109800FFFCFFFFFFFFFEFFFFFFFFEF88130000CD
:1010A800FFCFFFFFFF3FFFFFF0B500235AE0846842
:1010B8005F000326BE40B4432600CC68BC403443DE
:1010C8008460446894434A681609012232409A4071
:1010D8002243426056E0DC080834A4002658053252
:1010E8001A4092000F279740BE430F6997403A0075
:1010F800324322505AE0032600E00026A64034007E
:101108003C43434E1832920094513468EA43260017
:10111800AE434F68FF0201D52C4326003C4C2660A5
:101128006468260016404F68BF0201D52C4326008C
:10113800374C66608426A459260016404F68BF03C2
:1011480001D52C432600324C8427E6518026A45929
:1011580022404E68F60301D52A0022432C4D8024F4
:101168002A5101330C682200DA404FD001229A40FC
:10117800250015401442F4D003244E683440013C45
:10118800012C94D903224C682240032A09D0C26852
:101198005E000324B440A24314008A68B24022438C
:1011A800C26003224C682240022A94D004685E0080
:1011B80003221700B740BC434F683A40B24022436D
:1011C8000260C02292024C681442CAD09A081400E5
:1011D8001834A4000E4EA75903241C40E4000F261F
:1011E800A640B743A026F605B04286D0094EB042C5
:1011F80008D0094EB04207D0084EB04200D17AE775
:1012080005267BE7012679E7022677E7F0BDC04689
:10121800001802400004005000080050000C005064
:1012280003690B4201D0012070470020FCE7002A27
:1012380001D0816170478162FCE7426913000B406D
:101248001B049143194381617047000010B5104A8F
:10125800136810490B400343136080239B00984296
:1012680001D0002010BD0C4B1B685800C01840006E
:101278000A49FEF741FF0130054B5B695B0503D561
:10128800002803D00138F7E70020EBE70320E9E75F
:1012980000700040FFF9FFFF0800002040420F00E7
:1012A80070B5002811DB8308134EC0339B009D598D
:1012B80003242040C000FF2214008440A543890174
:1012C8000A4082402A439A5170BD0F230340083BCD
:1012D8009B0806339B00094A944663445C680322D2
:1012E8001040C000FC3215008540AC4389010A401B
:1012F800824022435A60E7E700E100E000ED00E0A9
:10130800013880235B0498420FD2094A506009488B
:10131800036A1B021B0AC02109060B430362002350
:10132800936007331360002070470120FCE7C04634
:1013380010E000E000ED00E010B50400114B197852
:10134800002901D1012010BDFA208000FEF7D4FE4B
:1013580001000D4B1868FEF7CFFEFFF7D1FF0028FC
:101368000DD1032C01D90120EDE701300022210025
:101378004042FFF795FF054B1C600020E3E7012082
:10138800E1E7C0460000002008000020040000201B
:1013980010B5084A116880235B000B4313600020D6
:1013A800FFF7CAFF041E02D00124200010BDFFF77A
:1013B8001BF9FAE700200240034B1B78034A116827
:1013C8005B1813607047C046000000202001002011
:1013D800014B18687047C0462001002070B5040012
:1013E800FFF7F6FF0500631C02D0044B1B78E418D6
:1013F800FFF7EEFF401BA042FAD370BD00000020AB
:1014080030B5EFF31084012282F3108801680B686D
:10141800124D2B400B6084F31088EFF3108182F398
:101428001088026893680E4C2340936081F31088FB
:10143800C36E012B06D08C232022C2500023C36622
:10144800436730BDEFF3108183F310880268136897
:101458001024A343136081F31088ECE7DFFEFFFF3D
:10146800FEFFFFEF10B50400836802691343426969
:101478001343C269134301680A686B480240134367
:101488000B602268536869490B40E1680B4353605D
:10149800226AA3691A4321688B686548034013438D
:1014A8008B602268D36A0F218B43616A0B43D36236
:1014B8002368604A93420AD05F4A93423ED05F4A0B
:1014C80093425CD05E4A934249D010230BE05D4BB7
:1014D8005A6D03231340022B43D02BD8002B42D044
:1014E800012B42D10333E06980221202904248D096
:1014F800042B00D191E07AD8002B00D186E0022B92
:1015080073D15148636A5B00504A995AFEF7F4FD5B
:1015180063685B08C0186168FEF7EEFD0200103AC8
:101528004B4B9A4200D97DE023680004000CD86038
:10153800002062E0032B1AD10533D4E7414B5A6DE2
:101548000C231340082B14D005D8002B13D0042BE0
:10155800C9D01023C7E70C2B0FD1043BC3E70023E6
:10156800C1E70223BFE70023BDE71023BBE7102331
:10157800B9E70223B7E70023B5E71023B3E7002351
:10158800B1E7042B2ED023D8002B25D0022B1DD158
:101598002D48636A5B002D4A995AFEF7ADFD40005D
:1015A80063685B08C0186168FEF7A6FD0200103A80
:1015B800274B9A4234D882B20F239A434008083BFB
:1015C800184010432368D860002016E0012014E07A
:1015D800082BDED0012010E0FFF78AFC0028D8D1C4
:1015E80000200AE0FFF75CFBF8E7012005E0082B84
:1015F80002D18020000285E7012001236A22A3523C
:10160800023AA35200236367A36710BDFFF770FC7B
:10161800002800D076E70020EFE7FFF741FBF7E767
:101628000120EAE70120E8E7F369FFCFFFCFFFFFDA
:10163800FFF4FF110038014000440040004800401A
:10164800004C0040001002400024F400201C000858
:10165800EFFF0000836A1B0706D5026853682C4910
:101668000B40816B0B435360836ADB0706D5026826
:10167800536828490B40C16A0B435360836A9B0730
:1016880006D50268536824490B40016B0B4353602D
:10169800836A5B0706D50268536820490B40416B93
:1016A8000B435360836ADB0606D5026893681C49BE
:1016B8000B40C16B0B439360836A9B0606D5026897
:1016C800936818490B40016C0B439360836A5B066F
:1016D8000BD50268536814490B40416C0B435360A7
:1016E80080235B03426C9A420AD0836A1B0606D5A4
:1016F800026853680D490B40C16C0B435360704737
:10170800026853680A490B40816C0B435360ECE74D
:10171800FF7FFFFFFFFFFDFFFFFFFEFFFFFFFBFF58
:10172800FFEFFFFFFFDFFFFFFFFFEFFFFFFFF7FF09
:10173800FFFF9FFFF8B5CE46474680B506000D006F
:1017480017009946089B98463368DC692C40641B4F
:1017580063425C41BC4233D143460133F4D0FFF7C6
:1017680037FE4B46C01A40452FD84346002B2ED093
:1017780033681A685207E7D5802DE5D0402DE3D0AD
:10178800DA69120710D4DA691205DDD58022120150
:101798001A623000FFF734FE90232022F2500C3BEF
:1017A8000022F25403200CE008241C623000FFF7EA
:1017B80027FE9023F4500C3B0022F254012000E055
:1017C8000020C0BCB946B046F8BD0320F9E70320A5
:1017D800F7E7F0B5C64600B582B004000D009046A4
:1017E8001E008823C358202B66D1002969D0002AFF
:1017F80069D080235B0182689A4204D10369002B77
:1018080001D1CB0761D490230022E250083B21325A
:10181800E250FFF7DDFD070054234246E25202334F
:10182800E25280235B01A2689A4202D000239846C4
:1018380018E02369002B2AD00023984612E0882359
:101848002022E250032038E043461B882268DB054B
:10185800DB0D936202239C46E0445623E25A013A88
:1018680092B2E2525623E35A9BB2002B12D0009652
:101878003B00002280212000FFF75CFF0028DED11A
:10188800002DE1D02A7823689A620135E5E7A84659
:101898000025E7E700963B00002240212000FFF7E3
:1018A80049FF002803D188232022E25005E088233D
:1018B8002022E250032000E0022002B080BCB8469B
:1018C800F0BD0120F9E70120F7E70120F5E7000066
:1018D80030B583B0040090230022C250FFF778FD92
:1018E800050022681268130710D423681B685B0779
:1018F8002BD420238822A3500432A3500023E3666C
:101908002367083AA354002003B030BD8021234B3D
:1019180000930300002289032000FFF70BFF002833
:10192800E3D0EFF31081012383F310882268136852
:1019380080208343136081F3108888232022E2509B
:10194800043B0022E2547D38DEE78021134B0093EC
:101958002B000022C9032000FFF7ECFE0028C8D0A6
:10196800EFF31080012282F3108821680B680C4D78
:101978002B400B6080F31088EFF3108082F31088FF
:1019880021688B6893438B6080F310888C231F3207
:10199800E250083B0022E2540320B5E7FFFFFF01B5
:1019A800DFFEFFFF10B5041E30D08823C358002B7C
:1019B80022D088232422E2502268136801218B4315
:1019C8001360A36A002B1DD12000FFF74BFD0128EF
:1019D80011D0226853680E490B40536022689368FF
:1019E8002A218B4393602268136829390B431360BB
:1019F8002000FFF76DFF10BD84330022C254FEF7AC
:101A080039FED6E72000FFF725FEDDE70120F2E7E3
:101A1800FFB7FFFFF8B50400436E002B05D1013373
:101A28006A228352023A8352F8BD026895686D0EA5
:101A380007231D409268520F1340084FF85CC000FE
:101A4800074EF15CFEF7E2FB6A23E052785DC000C6
:101A5800715DFEF7DBFB6823E052E5E7401C0008F8
:101A6800381C000870B58423C35C012B15D084246E
:101A780001260655882524234351026813681168F6
:101A8800B1431160064A13400022426601680B60A8
:101A9800202343510255002070BD0220FCE7C046B8
:101AA800FFFFFFDFF8B504000A008423C35C012BA5
:101AB8001BD084250120605588262423A351236840
:101AC8001F6819688143196020688368DB00D9089A
:101AD800114381602000FFF79DFF23681F602023CA
:101AE800A351002363550020F8BD0220FCE7000045
:101AF800F8B504000B008422825C012A1BD08425DF
:101B08000120605588262422A2512268176811688E
:101B18008143116022689168084801401943916027
:101B28002000FFF777FF23681F602023A3510023BD
:101B380063550020F8BD0220FCE7C046FFFFFFF117
:101B4800704700000D488546FFF7FAFF0C480D491D
:101B58000D4A002302E0D458C4500433C4188C4200
:101B6800F9D30A4A0A4C002301E013600432A24266
:101B7800FBD300F011F8FEF707FDFEE70090002008
:101B8800000000200C000020B01C00080C00002001
:101B980024010020FEE7000070B500260C4D0D4C16
:101BA800641BA410A64209D1002600F021F80A4DB2
:101BB8000A4C641BA410A64205D170BDB300EB58B3
:101BC80098470136EEE7B300EB5898470136F2E73D
:101BD800A81C0008A81C0008A81C0008AC1C0008C9
:101BE80003008218934200D1704719700133F9E756
:101BF800F8B5C046F8BC08BC9E467047F8B5C04664
:081C0800F8BC08BC9E467047C1
:101C100048656C6C6F576F726C64210D0A00000090
:101C2000010002000400060008000A000C00100079
:101C300020004000800000010804020408010101A6
:101C40000101010307010000000000000000000086
:101C50000000000000000000000000000000000084
:101C60000000000000000000010000000200000071
:101C70000300000004000000060000000700000050
:101C80000800000009000000000000000000000043
:101C90000000000000000000010000000200000041
:081CA000030000000400000035
:041CA800E10000084F
:041CAC00B900000873
:0C1CB00001000000040000000024F4000B
:0400000508001B4D87
:00000001FF
